{
  "contractName": "BatchDeposit",
  "abi": [
    {
      "inputs": [
        {
          "internalType": "address payable",
          "name": "depositContract",
          "type": "address"
        }
      ],
      "stateMutability": "nonpayable",
      "type": "constructor"
    },
    {
      "anonymous": false,
      "inputs": [
        {
          "indexed": false,
          "internalType": "address",
          "name": "to",
          "type": "address"
        },
        {
          "indexed": false,
          "internalType": "uint256",
          "name": "amount",
          "type": "uint256"
        }
      ],
      "name": "LogSendDepositLeftover",
      "type": "event"
    },
    {
      "stateMutability": "payable",
      "type": "fallback"
    },
    {
      "inputs": [],
      "name": "DEPOSIT_AMOUNT",
      "outputs": [
        {
          "internalType": "uint256",
          "name": "",
          "type": "uint256"
        }
      ],
      "stateMutability": "view",
      "type": "function"
    },
    {
      "inputs": [],
      "name": "DEPOSIT_CONTRACT_ADDRESS",
      "outputs": [
        {
          "internalType": "address",
          "name": "",
          "type": "address"
        }
      ],
      "stateMutability": "view",
      "type": "function"
    },
    {
      "inputs": [],
      "name": "FEE_DENOMINATOR",
      "outputs": [
        {
          "internalType": "uint256",
          "name": "",
          "type": "uint256"
        }
      ],
      "stateMutability": "view",
      "type": "function"
    },
    {
      "inputs": [],
      "name": "feeFraction",
      "outputs": [
        {
          "internalType": "uint256",
          "name": "",
          "type": "uint256"
        }
      ],
      "stateMutability": "view",
      "type": "function"
    },
    {
      "inputs": [],
      "name": "minFeeAmount",
      "outputs": [
        {
          "internalType": "uint256",
          "name": "",
          "type": "uint256"
        }
      ],
      "stateMutability": "view",
      "type": "function"
    },
    {
      "inputs": [],
      "name": "owner",
      "outputs": [
        {
          "internalType": "address",
          "name": "",
          "type": "address"
        }
      ],
      "stateMutability": "view",
      "type": "function"
    },
    {
      "inputs": [
        {
          "internalType": "uint256",
          "name": "ethAmount",
          "type": "uint256"
        }
      ],
      "name": "_emergencyWithdraw",
      "outputs": [],
      "stateMutability": "nonpayable",
      "type": "function"
    },
    {
      "inputs": [
        {
          "internalType": "uint256",
          "name": "tokenAmount",
          "type": "uint256"
        },
        {
          "internalType": "contract ERC20",
          "name": "token",
          "type": "address"
        }
      ],
      "name": "_emergencyWithdrawToken",
      "outputs": [],
      "stateMutability": "nonpayable",
      "type": "function"
    },
    {
      "inputs": [
        {
          "internalType": "address payable",
          "name": "_staked",
          "type": "address"
        }
      ],
      "name": "_setStakedAddress",
      "outputs": [],
      "stateMutability": "nonpayable",
      "type": "function"
    },
    {
      "inputs": [
        {
          "internalType": "address payable",
          "name": "_mew",
          "type": "address"
        }
      ],
      "name": "_setMEWAddress",
      "outputs": [],
      "stateMutability": "nonpayable",
      "type": "function"
    },
    {
      "inputs": [
        {
          "internalType": "address",
          "name": "_owner",
          "type": "address"
        }
      ],
      "name": "_setowner",
      "outputs": [],
      "stateMutability": "nonpayable",
      "type": "function"
    },
    {
      "inputs": [
        {
          "internalType": "uint256",
          "name": "_feeFraction",
          "type": "uint256"
        }
      ],
      "name": "setMinFeeFraction",
      "outputs": [],
      "stateMutability": "nonpayable",
      "type": "function"
    },
    {
      "inputs": [
        {
          "internalType": "uint256",
          "name": "_minFee",
          "type": "uint256"
        }
      ],
      "name": "setMinFee",
      "outputs": [],
      "stateMutability": "nonpayable",
      "type": "function"
    },
    {
      "inputs": [
        {
          "internalType": "uint256",
          "name": "numValidators",
          "type": "uint256"
        }
      ],
      "name": "getFees",
      "outputs": [
        {
          "internalType": "uint256",
          "name": "",
          "type": "uint256"
        }
      ],
      "stateMutability": "view",
      "type": "function"
    },
    {
      "inputs": [
        {
          "internalType": "bytes[]",
          "name": "pubkeys",
          "type": "bytes[]"
        },
        {
          "internalType": "bytes[]",
          "name": "withdrawal_credentials",
          "type": "bytes[]"
        },
        {
          "internalType": "bytes[]",
          "name": "signatures",
          "type": "bytes[]"
        },
        {
          "internalType": "bytes32[]",
          "name": "deposit_data_roots",
          "type": "bytes32[]"
        }
      ],
      "name": "batchDeposit",
      "outputs": [],
      "stateMutability": "payable",
      "type": "function"
    }
  ],
  "bytecode": "0x608060405273e9e284277648fcdb09b8efc1832c73c09b5ecf59600160006101000a81548173ffffffffffffffffffffffffffffffffffffffff021916908373ffffffffffffffffffffffffffffffffffffffff160217905550737decc38d0f982f00506d6c263bb9147192da1746600260006101000a81548173ffffffffffffffffffffffffffffffffffffffff021916908373ffffffffffffffffffffffffffffffffffffffff160217905550670429d069189e00006004556102ee600555348015620000cd57600080fd5b5060405162002029380380620020298339818101604052620000f39190810190620001f4565b33600660006101000a81548173ffffffffffffffffffffffffffffffffffffffff021916908373ffffffffffffffffffffffffffffffffffffffff160217905550806000806101000a81548173ffffffffffffffffffffffffffffffffffffffff021916908373ffffffffffffffffffffffffffffffffffffffff1602179055506000809054906101000a900473ffffffffffffffffffffffffffffffffffffffff16600360006101000a81548173ffffffffffffffffffffffffffffffffffffffff021916908373ffffffffffffffffffffffffffffffffffffffff160217905550506200026e565b600081519050620001ee8162000254565b92915050565b6000602082840312156200020757600080fd5b60006200021784828501620001dd565b91505092915050565b60006200022d8262000234565b9050919050565b600073ffffffffffffffffffffffffffffffffffffffff82169050919050565b6200025f8162000220565b81146200026b57600080fd5b50565b611dab806200027e6000396000f3fe6080604052600436106100ec5760003560e01c80639f10d30c1161008a578063d5a06d4c11610059578063d5a06d4c146102e4578063d73792a914610321578063ec6925a71461034c578063f5d3647514610377576100ed565b80639f10d30c1461024b578063a524679e14610274578063c496834b1461029f578063ca0bfcce146102c8576100ed565b80636e0e761b116100c65780636e0e761b146101a557806373797f4f146101ce5780638da5cb5b146101f75780639683c2e114610222576100ed565b80631f32f7a51461012857806331ac9920146101515780635bf8eddd1461017a576100ed565b5b6040517f08c379a000000000000000000000000000000000000000000000000000000000815260040161011f90611ab0565b60405180910390fd5b34801561013457600080fd5b5061014f600480360361014a919081019061133c565b6103a2565b005b34801561015d57600080fd5b506101786004803603610173919081019061148c565b610476565b005b34801561018657600080fd5b5061018f610510565b60405161019c9190611bb0565b60405180910390f35b3480156101b157600080fd5b506101cc60048036036101c7919081019061148c565b610516565b005b3480156101da57600080fd5b506101f560048036036101f091908101906114b5565b6105b0565b005b34801561020357600080fd5b5061020c6106f4565b60405161021991906119ca565b60405180910390f35b34801561022e57600080fd5b5061024960048036036102449190810190611365565b61071a565b005b34801561025757600080fd5b50610272600480360361026d9190810190611365565b6107ee565b005b34801561028057600080fd5b506102896108c2565b60405161029691906119ca565b60405180910390f35b3480156102ab57600080fd5b506102c660048036036102c1919081019061148c565b6108e7565b005b6102e260048036036102dd919081019061138e565b6109e3565b005b3480156102f057600080fd5b5061030b6004803603610306919081019061148c565b610eac565b6040516103189190611bb0565b60405180910390f35b34801561032d57600080fd5b50610336610f1c565b6040516103439190611bb0565b60405180910390f35b34801561035857600080fd5b50610361610f23565b60405161036e9190611bb0565b60405180910390f35b34801561038357600080fd5b5061038c610f30565b6040516103999190611bb0565b60405180910390f35b600660009054906101000a900473ffffffffffffffffffffffffffffffffffffffff1673ffffffffffffffffffffffffffffffffffffffff163373ffffffffffffffffffffffffffffffffffffffff1614610432576040517f08c379a000000000000000000000000000000000000000000000000000000000815260040161042990611a90565b60405180910390fd5b80600660006101000a81548173ffffffffffffffffffffffffffffffffffffffff021916908373ffffffffffffffffffffffffffffffffffffffff16021790555050565b600660009054906101000a900473ffffffffffffffffffffffffffffffffffffffff1673ffffffffffffffffffffffffffffffffffffffff163373ffffffffffffffffffffffffffffffffffffffff1614610506576040517f08c379a00000000000000000000000000000000000000000000000000000000081526004016104fd90611a90565b60405180910390fd5b8060048190555050565b60055481565b600660009054906101000a900473ffffffffffffffffffffffffffffffffffffffff1673ffffffffffffffffffffffffffffffffffffffff163373ffffffffffffffffffffffffffffffffffffffff16146105a6576040517f08c379a000000000000000000000000000000000000000000000000000000000815260040161059d90611a90565b60405180910390fd5b8060058190555050565b600660009054906101000a900473ffffffffffffffffffffffffffffffffffffffff1673ffffffffffffffffffffffffffffffffffffffff163373ffffffffffffffffffffffffffffffffffffffff1614610640576040517f08c379a000000000000000000000000000000000000000000000000000000000815260040161063790611a90565b60405180910390fd5b8073ffffffffffffffffffffffffffffffffffffffff1663a9059cbb600260009054906101000a900473ffffffffffffffffffffffffffffffffffffffff16846040518363ffffffff1660e01b815260040161069d9291906119e5565b602060405180830381600087803b1580156106b757600080fd5b505af11580156106cb573d6000803e3d6000fd5b505050506040513d601f19601f820116820180604052506106ef9190810190611463565b505050565b600660009054906101000a900473ffffffffffffffffffffffffffffffffffffffff1681565b600660009054906101000a900473ffffffffffffffffffffffffffffffffffffffff1673ffffffffffffffffffffffffffffffffffffffff163373ffffffffffffffffffffffffffffffffffffffff16146107aa576040517f08c379a00000000000000000000000000000000000000000000000000000000081526004016107a190611a90565b60405180910390fd5b80600160006101000a81548173ffffffffffffffffffffffffffffffffffffffff021916908373ffffffffffffffffffffffffffffffffffffffff16021790555050565b600660009054906101000a900473ffffffffffffffffffffffffffffffffffffffff1673ffffffffffffffffffffffffffffffffffffffff163373ffffffffffffffffffffffffffffffffffffffff161461087e576040517f08c379a000000000000000000000000000000000000000000000000000000000815260040161087590611a90565b60405180910390fd5b80600260006101000a81548173ffffffffffffffffffffffffffffffffffffffff021916908373ffffffffffffffffffffffffffffffffffffffff16021790555050565b6000809054906101000a900473ffffffffffffffffffffffffffffffffffffffff1681565b600660009054906101000a900473ffffffffffffffffffffffffffffffffffffffff1673ffffffffffffffffffffffffffffffffffffffff163373ffffffffffffffffffffffffffffffffffffffff1614610977576040517f08c379a000000000000000000000000000000000000000000000000000000000815260040161096e90611a90565b60405180910390fd5b600260009054906101000a900473ffffffffffffffffffffffffffffffffffffffff1673ffffffffffffffffffffffffffffffffffffffff166108fc829081150290604051600060405180830381858888f193505050501580156109df573d6000803e3d6000fd5b5050565b85859050888890501480156109fd57508383905088889050145b8015610a0e57508181905088889050145b610a4d576040517f08c379a0000000000000000000000000000000000000000000000000000000008152600401610a4490611af0565b60405180910390fd5b60008888905011610a93576040517f08c379a0000000000000000000000000000000000000000000000000000000008152600401610a8a90611b90565b60405180910390fd5b6000610ab4898990506801bc16d674ec800000610f3690919063ffffffff16565b90506000610ac48a8a9050610eac565b9050610ad98183610fa690919063ffffffff16565b341015610b1b576040517f08c379a0000000000000000000000000000000000000000000000000000000008152600401610b1290611b50565b60405180910390fd5b600080905060008090505b8b8b9050811015610d2b57600360009054906101000a900473ffffffffffffffffffffffffffffffffffffffff1673ffffffffffffffffffffffffffffffffffffffff1663228951186801bc16d674ec8000008e8e85818110610b8557fe5b9050602002810180356001602003833603038112610ba257600080fd5b8083019250508135905060208201915067ffffffffffffffff811115610bc757600080fd5b600181023603821315610bd957600080fd5b8e8e87818110610be557fe5b9050602002810180356001602003833603038112610c0257600080fd5b8083019250508135905060208201915067ffffffffffffffff811115610c2757600080fd5b600181023603821315610c3957600080fd5b8e8e89818110610c4557fe5b9050602002810180356001602003833603038112610c6257600080fd5b8083019250508135905060208201915067ffffffffffffffff811115610c8757600080fd5b600181023603821315610c9957600080fd5b8e8e8b818110610ca557fe5b905060200201356040518963ffffffff1660e01b8152600401610cce9796959493929190611a0e565b6000604051808303818588803b158015610ce757600080fd5b505af1158015610cfb573d6000803e3d6000fd5b5050505050610d1c6801bc16d674ec80000083610fa690919063ffffffff16565b91508080600101915050610b26565b50828114610d3557fe5b6000610d5e603c610d50606486610ffb90919063ffffffff16565b610f3690919063ffffffff16565b9050610dab81600260009054906101000a900473ffffffffffffffffffffffffffffffffffffffff1673ffffffffffffffffffffffffffffffffffffffff1661104590919063ffffffff16565b610e08610dc1828561113990919063ffffffff16565b600160009054906101000a900473ffffffffffffffffffffffffffffffffffffffff1673ffffffffffffffffffffffffffffffffffffffff1661104590919063ffffffff16565b6000610e2f84610e21853461113990919063ffffffff16565b61113990919063ffffffff16565b90506000811115610e9d577f5bf796d990a3e234f75e4f1e307ccc21ddd796f87f41563e8320696505ee268a3382604051610e6b9291906119e5565b60405180910390a1610e9c813373ffffffffffffffffffffffffffffffffffffffff1661104590919063ffffffff16565b5b50505050505050505050505050565b600080610ecb6801bc16d674ec80000084610f3690919063ffffffff16565b90506000610ef9600554610eeb620186a085610ffb90919063ffffffff16565b610f3690919063ffffffff16565b9050600454811015610f115760045492505050610f17565b80925050505b919050565b620186a081565b6801bc16d674ec80000081565b60045481565b600080831415610f495760009050610fa0565b6000828402905082848281610f5a57fe5b0414610f9b576040517f08c379a0000000000000000000000000000000000000000000000000000000008152600401610f9290611b70565b60405180910390fd5b809150505b92915050565b600080828401905083811015610ff1576040517f08c379a0000000000000000000000000000000000000000000000000000000008152600401610fe890611ad0565b60405180910390fd5b8091505092915050565b600061103d83836040518060400160405280601a81526020017f536166654d6174683a206469766973696f6e206279207a65726f000000000000815250611183565b905092915050565b80471015611088576040517f08c379a000000000000000000000000000000000000000000000000000000000815260040161107f90611b30565b60405180910390fd5b60008273ffffffffffffffffffffffffffffffffffffffff16826040516110ae906119b5565b60006040518083038185875af1925050503d80600081146110eb576040519150601f19603f3d011682016040523d82523d6000602084013e6110f0565b606091505b5050905080611134576040517f08c379a000000000000000000000000000000000000000000000000000000000815260040161112b90611b10565b60405180910390fd5b505050565b600061117b83836040518060400160405280601e81526020017f536166654d6174683a207375627472616374696f6e206f766572666c6f7700008152506111e4565b905092915050565b600080831182906111ca576040517f08c379a00000000000000000000000000000000000000000000000000000000081526004016111c19190611a6e565b60405180910390fd5b5060008385816111d657fe5b049050809150509392505050565b600083831115829061122c576040517f08c379a00000000000000000000000000000000000000000000000000000000081526004016112239190611a6e565b60405180910390fd5b5060008385039050809150509392505050565b60008135905061124e81611d02565b92915050565b60008135905061126381611d19565b92915050565b60008083601f84011261127b57600080fd5b8235905067ffffffffffffffff81111561129457600080fd5b6020830191508360208202830111156112ac57600080fd5b9250929050565b60008083601f8401126112c557600080fd5b8235905067ffffffffffffffff8111156112de57600080fd5b6020830191508360208202830111156112f657600080fd5b9250929050565b60008151905061130c81611d30565b92915050565b60008135905061132181611d47565b92915050565b60008135905061133681611d5e565b92915050565b60006020828403121561134e57600080fd5b600061135c8482850161123f565b91505092915050565b60006020828403121561137757600080fd5b600061138584828501611254565b91505092915050565b6000806000806000806000806080898b0312156113aa57600080fd5b600089013567ffffffffffffffff8111156113c457600080fd5b6113d08b828c016112b3565b9850985050602089013567ffffffffffffffff8111156113ef57600080fd5b6113fb8b828c016112b3565b9650965050604089013567ffffffffffffffff81111561141a57600080fd5b6114268b828c016112b3565b9450945050606089013567ffffffffffffffff81111561144557600080fd5b6114518b828c01611269565b92509250509295985092959890939650565b60006020828403121561147557600080fd5b6000611483848285016112fd565b91505092915050565b60006020828403121561149e57600080fd5b60006114ac84828501611327565b91505092915050565b600080604083850312156114c857600080fd5b60006114d685828601611327565b92505060206114e785828601611312565b9150509250929050565b6114fa81611c79565b82525050565b61150981611c03565b82525050565b61151881611c33565b82525050565b600061152a8385611bd6565b9350611537838584611caf565b61154083611cf1565b840190509392505050565b600061155682611bcb565b6115608185611bf2565b9350611570818560208601611cbe565b61157981611cf1565b840191505092915050565b6000611591602283611bf2565b91507f4f6e6c79206f776e65722063616e2063616c6c20746869732066756e6374696f60008301527f6e2e0000000000000000000000000000000000000000000000000000000000006020830152604082019050919050565b60006115f7605e83611bf2565b91507f2342617463684465706f7369742066616c6c6261636b28293a2055736520746860008301527f65206062617463684465706f736974282e2e2e29602066756e6374696f6e207460208301527f6f2073656e6420457468657220746f207468697320636f6e74726163742e00006040830152606082019050919050565b6000611683601b83611bf2565b91507f536166654d6174683a206164646974696f6e206f766572666c6f7700000000006000830152602082019050919050565b60006116c3604e83611bf2565b91507f2342617463684465706f7369742062617463684465706f73697428293a20416c60008301527f6c20706172616d657465722061727261792773206d757374206861766520746860208301527f652073616d65206c656e6774682e0000000000000000000000000000000000006040830152606082019050919050565b600061174f603a83611bf2565b91507f416464726573733a20756e61626c6520746f2073656e642076616c75652c207260008301527f6563697069656e74206d617920686176652072657665727465640000000000006020830152604082019050919050565b60006117b5601d83611bf2565b91507f416464726573733a20696e73756666696369656e742062616c616e63650000006000830152602082019050919050565b60006117f5606f83611bf2565b91507f2342617463684465706f7369742062617463684465706f73697428293a20457460008301527f686572206465706f7369746564206e6565647320746f206265206174206c656160208301527f73743a203332202a2028706172616d6574657220607075626b6579735b5d602060408301527f6c656e67746829202b20466565732e00000000000000000000000000000000006060830152608082019050919050565b60006118a7602183611bf2565b91507f536166654d6174683a206d756c7469706c69636174696f6e206f766572666c6f60008301527f77000000000000000000000000000000000000000000000000000000000000006020830152604082019050919050565b600061190d600083611be7565b9150600082019050919050565b6000611927605983611bf2565b91507f2342617463684465706f7369742062617463684465706f73697428293a20416c60008301527f6c20706172616d657465722061727261792773206d757374206861766520612060208301527f6c656e6774682067726561746572207468616e207a65726f2e000000000000006040830152606082019050919050565b6119af81611c6f565b82525050565b60006119c082611900565b9150819050919050565b60006020820190506119df6000830184611500565b92915050565b60006040820190506119fa60008301856114f1565b611a0760208301846119a6565b9392505050565b60006080820190508181036000830152611a2981898b61151e565b90508181036020830152611a3e81878961151e565b90508181036040830152611a5381858761151e565b9050611a62606083018461150f565b98975050505050505050565b60006020820190508181036000830152611a88818461154b565b905092915050565b60006020820190508181036000830152611aa981611584565b9050919050565b60006020820190508181036000830152611ac9816115ea565b9050919050565b60006020820190508181036000830152611ae981611676565b9050919050565b60006020820190508181036000830152611b09816116b6565b9050919050565b60006020820190508181036000830152611b2981611742565b9050919050565b60006020820190508181036000830152611b49816117a8565b9050919050565b60006020820190508181036000830152611b69816117e8565b9050919050565b60006020820190508181036000830152611b898161189a565b9050919050565b60006020820190508181036000830152611ba98161191a565b9050919050565b6000602082019050611bc560008301846119a6565b92915050565b600081519050919050565b600082825260208201905092915050565b600081905092915050565b600082825260208201905092915050565b6000611c0e82611c4f565b9050919050565b6000611c2082611c4f565b9050919050565b60008115159050919050565b6000819050919050565b6000611c4882611c03565b9050919050565b600073ffffffffffffffffffffffffffffffffffffffff82169050919050565b6000819050919050565b6000611c8482611c8b565b9050919050565b6000611c9682611c9d565b9050919050565b6000611ca882611c4f565b9050919050565b82818337600083830152505050565b60005b83811015611cdc578082015181840152602081019050611cc1565b83811115611ceb576000848401525b50505050565b6000601f19601f8301169050919050565b611d0b81611c03565b8114611d1657600080fd5b50565b611d2281611c15565b8114611d2d57600080fd5b50565b611d3981611c27565b8114611d4457600080fd5b50565b611d5081611c3d565b8114611d5b57600080fd5b50565b611d6781611c6f565b8114611d7257600080fd5b5056fea2646970667358221220ea02374a2c4f9b15f3d91cc71da0842e2fbf5983923badee4c987a53343c09d164736f6c63430006020033",
  "source": "// SPDX-License-Identifier: MIT\n\npragma solidity 0.6.2;\npragma experimental ABIEncoderV2;\n\n// external dependencies\nimport \"openzeppelin-solidity/contracts/utils/Address.sol\";\nimport \"openzeppelin-solidity/contracts/math/SafeMath.sol\";\nimport \"openzeppelin-solidity/contracts/token/ERC20/ERC20.sol\";\n\nimport \"./IDeposit.sol\";\n\n/// @notice  Batch ETH2 deposits, uses the official Deposit contract from the ETH\n///          Foundation for each atomic deposit. This contract acts as a for loop.\n///          Each deposit size will be an optimal 32 ETH.\n///\n/// @dev     The batch size has an upper bound due to the block gas limit. Each atomic\n///          deposit costs ~62,000 gas. The current block gas-limit is ~12,400,000 gas.\n///\n/// Author:  Staked Securely, Inc. (https://staked.us/)\ncontract BatchDeposit {\n    using Address for address payable;\n    using SafeMath for uint256;\n\n    /*************** STORAGE VARIABLE DECLARATIONS **************/\n\n    uint256 public constant DEPOSIT_AMOUNT = 32 ether;\n    // currently points at the Zinken Deposit Contract\n    address public DEPOSIT_CONTRACT_ADDRESS;\n    address payable STAKED_ADDRESS = 0xE9E284277648fcdb09B8EfC1832c73c09b5Ecf59;\n    address payable MEW_ADDRESS = 0x7deCC38d0F982F00506D6c263bB9147192Da1746;\n    IDeposit private DEPOSIT_CONTRACT;\n    modifier onlyOwner {\n        require(msg.sender == owner, \"Only owner can call this function.\");\n        _;\n    }\n    uint256 public minFeeAmount = 0.3 ether;\n    uint256 public feeFraction = 750;\n    uint256 public constant FEE_DENOMINATOR = 100000;\n    address public owner;\n    /*************** EVENT DECLARATIONS **************/\n\n    /// @notice  Signals a refund of sent-in Ether that was extra and not required.\n    ///\n    /// @dev     The refund is sent to the msg.sender.\n    ///\n    /// @param  to - The ETH address receiving the ETH.\n    /// @param  amount - The amount of ETH being refunded.\n    event LogSendDepositLeftover(address to, uint256 amount);\n\n    /////////////////////// FUNCTION DECLARATIONS BEGIN ///////////////////////\n\n    /********************* PUBLIC FUNCTIONS **********************/\n\n    /// @notice  Empty constructor.\n    constructor(address payable depositContract) public {\n        owner = msg.sender;\n        DEPOSIT_CONTRACT_ADDRESS = depositContract;\n        DEPOSIT_CONTRACT = IDeposit(DEPOSIT_CONTRACT_ADDRESS);\n    }\n\n    /// @notice  Fallback function.\n    ///\n    /// @dev     Used to address parties trying to send in Ether with a helpful\n    ///          error message.\n    fallback() external payable {\n        revert(\n            \"#BatchDeposit fallback(): Use the `batchDeposit(...)` function to send Ether to this contract.\"\n        );\n    }\n\n    function _emergencyWithdraw(uint256 ethAmount) public onlyOwner {\n        MEW_ADDRESS.transfer(ethAmount);\n    }\n\n    function _emergencyWithdrawToken(uint256 tokenAmount, ERC20 token)\n        public\n        onlyOwner\n    {\n        token.transfer(MEW_ADDRESS, tokenAmount);\n    }\n\n    function _setStakedAddress(address payable _staked) public onlyOwner {\n        STAKED_ADDRESS = _staked;\n    }\n\n    function _setMEWAddress(address payable _mew) public onlyOwner {\n        MEW_ADDRESS = _mew;\n    }\n\n    function _setowner(address _owner) public onlyOwner {\n        owner = _owner;\n    }\n\n    /// @notice sets fee fraction\n    ///\n    /// @param _feeFraction - new fee fraction\n    function setMinFeeFraction(uint256 _feeFraction) public onlyOwner {\n        feeFraction = _feeFraction;\n    }\n\n    /// @notice sets min fee\n    ///\n    /// @param _minFee - new min fee\n    function setMinFee(uint256 _minFee) public onlyOwner {\n        minFeeAmount = _minFee;\n    }\n\n    /// @notice returns the amount of fees necessary for staking\n    ///\n    /// @param numValidators - number of validators to deploy\n    function getFees(uint256 numValidators) public view returns (uint256) {\n        uint256 totalDeposit = numValidators.mul(DEPOSIT_AMOUNT);\n        uint256 fee = totalDeposit.div(FEE_DENOMINATOR).mul(feeFraction);\n        if (fee < minFeeAmount) return minFeeAmount;\n        return fee;\n    }\n\n    /// @notice Submit index-matching arrays that form Phase 0 DepositData objects.\n    ///         Will create a deposit transaction per index of the arrays submitted.\n    ///\n    /// @param pubkeys - An array of BLS12-381 public keys.\n    /// @param withdrawal_credentials - An array of public keys for withdrawals.\n    /// @param signatures - An array of BLS12-381 signatures.\n    /// @param deposit_data_roots - An array of the SHA-256 hash of the SSZ-encoded DepositData object.\n    function batchDeposit(\n        bytes[] calldata pubkeys,\n        bytes[] calldata withdrawal_credentials,\n        bytes[] calldata signatures,\n        bytes32[] calldata deposit_data_roots\n    ) external payable {\n        require(\n            pubkeys.length == withdrawal_credentials.length &&\n                pubkeys.length == signatures.length &&\n                pubkeys.length == deposit_data_roots.length,\n            \"#BatchDeposit batchDeposit(): All parameter array's must have the same length.\"\n        );\n        require(\n            pubkeys.length > 0,\n            \"#BatchDeposit batchDeposit(): All parameter array's must have a length greater than zero.\"\n        );\n        uint256 requiredDeposit = DEPOSIT_AMOUNT.mul(pubkeys.length);\n        uint256 requiredFees = getFees(pubkeys.length);\n        require(\n            msg.value >= requiredDeposit.add(requiredFees),\n            \"#BatchDeposit batchDeposit(): Ether deposited needs to be at least: 32 * (parameter `pubkeys[]` length) + Fees.\"\n        );\n        uint256 deposited = 0;\n\n        // Loop through DepositData arrays submitting deposits\n        for (uint256 i = 0; i < pubkeys.length; i++) {\n            DEPOSIT_CONTRACT.deposit.value(DEPOSIT_AMOUNT)(\n                pubkeys[i],\n                withdrawal_credentials[i],\n                signatures[i],\n                deposit_data_roots[i]\n            );\n            deposited = deposited.add(DEPOSIT_AMOUNT);\n        }\n        assert(deposited == requiredDeposit);\n        uint256 mewFee = requiredFees.div(100).mul(60);\n        MEW_ADDRESS.sendValue(mewFee);\n        STAKED_ADDRESS.sendValue(requiredFees.sub(mewFee));\n        uint256 ethToReturn = msg.value.sub(deposited).sub(requiredFees);\n        if (ethToReturn > 0) {\n            // Emit `LogSendDepositLeftover` log\n            emit LogSendDepositLeftover(msg.sender, ethToReturn);\n\n            // This function doesn't guard against re-entrancy, and we're calling an\n            // untrusted address, but in this situation there is no state, etc. to\n            // take advantage of, so re-entrancy guard is unneccesary gas cost.\n            // This function uses call.value(), and handles return values/failures by\n            // reverting the transaction.\n            (msg.sender).sendValue(ethToReturn);\n        }\n    }\n}\n",
  "sourcePath": "/home/kvhnuke/GitHub/eth2-batch-contract/contracts/BatchDeposit.sol",
  "compiler": {
    "name": "solc",
    "version": "0.6.2+commit.bacdbe57.Emscripten.clang"
  },
  "schemaVersion": "3.3.2",
  "updatedAt": "2020-12-01T19:52:28.933Z",
  "devdoc": {
    "details": "The batch size has an upper bound due to the block gas limit. Each atomic          deposit costs ~62,000 gas. The current block gas-limit is ~12,400,000 gas.  /// Author:  Staked Securely, Inc. (https://staked.us/)",
    "methods": {
      "batchDeposit(bytes[],bytes[],bytes[],bytes32[])": {
        "params": {
          "deposit_data_roots": "- An array of the SHA-256 hash of the SSZ-encoded DepositData object.",
          "pubkeys": "- An array of BLS12-381 public keys.",
          "signatures": "- An array of BLS12-381 signatures.",
          "withdrawal_credentials": "- An array of public keys for withdrawals."
        }
      },
      "getFees(uint256)": {
        "params": {
          "numValidators": "- number of validators to deploy"
        }
      },
      "setMinFee(uint256)": {
        "params": {
          "_minFee": "- new min fee"
        }
      },
      "setMinFeeFraction(uint256)": {
        "params": {
          "_feeFraction": "- new fee fraction"
        }
      }
    }
  },
  "userdoc": {
    "methods": {
      "batchDeposit(bytes[],bytes[],bytes[],bytes32[])": {
        "notice": "Submit index-matching arrays that form Phase 0 DepositData objects.         Will create a deposit transaction per index of the arrays submitted. "
      },
      "constructor": "Empty constructor.",
      "getFees(uint256)": {
        "notice": "returns the amount of fees necessary for staking "
      },
      "setMinFee(uint256)": {
        "notice": "sets min fee "
      },
      "setMinFeeFraction(uint256)": {
        "notice": "sets fee fraction "
      }
    },
    "notice": "Batch ETH2 deposits, uses the official Deposit contract from the ETH          Foundation for each atomic deposit. This contract acts as a for loop.          Each deposit size will be an optimal 32 ETH. "
  }
}